:020000040800F2
:1000000058050020D5000008DF0D0008DD0D0008B0
:1000100000000000000000000000000000000000E0
:10002000000000000000000000000000E30D0008D8
:100030000000000000000000E10D0008E50D0008D0
:10004000E7000008E7000008E7000008E7000008F4
:10005000E7000008E7000008E7000008E7000008E4
:1000600000000000E7000008E700000800000000B2
:10007000E7000008E7000008E700000800000000B3
:10008000E7000008E700000800000000E7000008A3
:1000900000000000E7000008E7000008E700000893
:1000A00000000000E700000800000000FD0E00084E
:1000B000E700000800000000000000000000000051
:1000C0000348854600F03AF80048004761010008FF
:1000D000580500200448804704480047FEE7FEE733
:1000E000FEE7FEE7FEE7FEE7ED0D0008C1000008B1
:1000F000421C0178401C0029FBD1801A704770B562
:100100000446002903D000202022012310E000280B
:1001100001D00020C043C046C0460DE02546D54072
:100120008D4205D30D469540641B1D4695404019F0
:100130001546521E002DF1DC214670BD064C0125EE
:10014000064E05E0E36807CC2B430C3C984710347F
:10015000B442F7D3FFF7B8FFE8120008081300080D
:1001600080B5002007490122D306C3580B50001D5B
:10017000C028F8D150070449086000F0C5FE0020EF
:1001800080BDC0460000002008ED00E070B50146CB
:1001900020314A78022A0FD103681A680E24A2433C
:1001A0001A601C68012294431C600D4C25461835CA
:1001B000AB4205D0150204E004218163012070BD2B
:1001C0001025261DB342134600D02B462360002481
:1001D0000C704A70416B002900D08847204670BDE2
:1001E00004000240F0B589B00B68002B00D1AAE0F2
:1001F0000E465649884201D0022200E00122052124
:10020000090700278842009700D000923A460897D5
:100210003C46039611E029434D4A5160059A641CFF
:1002200033681946E1403F1D08322546089CA41C4E
:1002300008942C46002900D185E001252946A140DB
:100240000B40ECD0029107940592069704937268D4
:100250000746344610261643122E0ED11C20069A4D
:1002600010400F268640079AD3089B00FB181A6A95
:10027000B2432669864016431E62384603273A4633
:1002800008998A40036893436468264601973E4074
:100290008E401E430660D643122C14D8A5402E4A29
:1002A000154210D082683240039BDB68089DAB404A
:1002B00013438360E206D20F079B9A40436802997A
:1002C0008B4313434360C1683140039EB268089B6F
:1002D0009A400A43C260E100049D069F059A079C6C
:1002E0009DD52346182414400F21A1401A46019B96
:1002F0009A43174B9A18136E8B430099A1401943E8
:100300001166144909687368DA0301D5294300E0CE
:10031000A943079C0F4A116051689A0301D52943EC
:1003200000E0A9430B4A516009490968DA0201D586
:10033000294300E0A943064A116051689A0200D59A
:1003400069E7A94368E709B0F0BDC0460004005062
:10035000001802408018024006000600002A02D061
:100360001822815070472822815070470548006844
:100370007047C0461A48006802490A6810180860A9
:100380007047C0465001002080B5032000F008F8F7
:10039000002801D0012080BD00F024F8002080BD9D
:1003A000B0B505460E4801680124002916D07D200D
:1003B000C000FFF7A4FE014694480068FFF79FFEC7
:1003C00000F088FA032D09D8002807D10024E04363
:1003D0002946224600F026F8844805602046B0BD34
:1003E000D400002082B009484168012211434160D5
:1003F0004168114001910199110702680A430260A6
:10040000006808400090009802B070473C1002401D
:100410001F21014001208840014908607047C04603
:1004200000E100E0002805D4032203469343094A73
:100430009A1803E00C220240074BD2188007C00E26
:100440008901C9B28140FF23834010689843084363
:100450001060704700E400E014ED00E0F0B583B0F8
:1004600000284BD00D4602905E48006801210191A2
:100470000840A84214D25B4908680126B0432843CB
:100480000860594CFFF772FF074656480068304035
:10049000A84205D0FFF76AFFC01BA042F5D951E082
:1004A000029B186881076D4C0DD5410704D50721C3
:1004B000090322680A4322600F21090222688A4345
:1004C000996811432160C0071BD126464548016841
:1004D00001200140A94238D9424A11688143116084
:1004E000414CFFF743FF05463E480068C0072CD04B
:1004F000FFF73CFF401BA042F6D923E0012003B0E8
:10050000F0BD5B68002B37D0012B3CD12146083968
:100510000968890301983AD5216807229143194354
:100520002160314FFFF722FF064620683821014045
:1005300002984068C0008142C7D0FFF717FF801BB8
:10054000B842F2D9032003B0F0BD029A10784007F8
:10055000334606D50720000319688143D068084355
:10056000186018688006400F13D0196838200140C1
:1005700008291FD1D24823E02146083909684905D6
:100580000198C9D403E0A16D89070198C4D403B0D0
:10059000F0BD184608380168181F00680004400FB5
:1005A000042800D900208000C64A10588904490F49
:1005B000C84005E019680140183948424841C00365
:1005C000196889093C220A40BF4989581F220A40FC
:1005D000D040BE490860BE480068FFF7E1FE03B0A6
:1005E000F0BDC0460020024088130000D800002063
:1005F000B648006819490968890A1C220A4004495A
:1006000089581F220A40D0407047C046C4000020CD
:10061000C8120008114801688906490F06D002680F
:1006200038210A40082A11D1A5487047021F08380E
:10063000016810680004400F042800D900208000E1
:10064000A04A10588904490FC84070470068084004
:10065000183841424141C8037047C0460810024063
:10066000F0B583B0012500286AD00195029000788A
:10067000C007914F4ED0B86838210140082908D1F1
:100680003868800346D502984068002842D1019D11
:1006900056E002984568002D08D08068002800D1F7
:1006A000D0E039690C2291430143396105200004EF
:1006B00085420CD0012001048D420ED07F49491E95
:1006C0003A680A403A6081043868884307E00120AC
:1006D00081043A680A433A60010438680843386084
:1006E000FFF744FE064601204404002D0FD0386871
:1006F00020420FD1FFF73AFE801BC828F7D9032507
:100700001EE0FFF733FE801B0325C82818D8386881
:100710002042F6D102980078800714D4029800781D
:1007200000070CD5B86838210140182949D1386E26
:10073000800704D5029880690028019D00D000251B
:10074000284603B0F0BDB8688006400F1DD0386859
:10075000029EF168002949D00721C9028843316906
:1007600001433960012001023A680A433A60840279
:10077000FFF7FCFD05463868204249D1FFF7F6FD3A
:10078000401B0228F7D90325DAE701253868400520
:10079000029A02D5D0680028D2D0AC0278684749C6
:1007A0000140506908437860FFF7E0FD064638686D
:1007B000204234D1FFF7DAFD801B0228F7D9032548
:1007C000BEE7386E0299896900293DD001210843AE
:1007D0003866FFF7CBFD0446386E8007AFD4FFF7CD
:1007E000C5FD001B03250228F6D9A9E701210A024D
:1007F000904338608C02FFF7B9FD06463868204206
:100800008CD0FFF7B3FD801B03250228F6D997E7AC
:1008100078682A4901407069084378607EE70720BC
:10082000C002396881430298006908433860B8689B
:100830008006400F19D0B96838200140082922D11C
:100840001F4826E0019D7BE7012188433866FFF7BA
:100850008DFD0446386E800700D470E7FFF786FDF3
:10086000001B03250228F5D96AE739687868000477
:10087000400F042800D900208000124A1058890433
:10088000490FC84005E0B96801401839484248415D
:10089000C003B96889093C220A400B4989581F22C4
:1008A0000A40D0400949086009480068FFF778FD10
:1008B000002800D044E731E7001002400000FFFFAD
:1008C00000366E017412000888120008C40000206F
:1008D000D8000020401E010E01D0012070470749BA
:1008E000074A5060074803680B40032189075918DD
:1008F000016000209060072111607047FFFFFF003A
:1009000010E000E020ED00E080B5816C01A000F077
:10091000C7FB80BD55617274204572726F722C20C6
:100920004572726F72436F6465203D2025640D0A25
:1009300000000000F0B587B0044600680168C36895
:1009400020221D46059215406A426A412F270F401A
:10095000203F7E1EB7411743264645364269002F89
:100960002ED00496012706970E07039608D001277C
:100970003A4002973E02374620371F40D71965D1CB
:1009800080221F4617407D427D410F06069F00D5FD
:100990002F46002F049E3BD0402213405D425D4114
:1009A000490600D506950699002907D1C1689143EB
:1009B000C16005983070204600F0F8F907B0F0BD2E
:1009C00071782229FAD101210A03A368934203D145
:1009D0002269002A00D18DE0626B531C636340687A
:1009E0001070608F401E60870004E7D12068C268E5
:1009F000059DAA43C2600A02C3689343C36042696B
:100A00008A4342617570204600F098F907B0F0BD46
:100A100031782129D2D101210903A3688B4202D167
:100A2000216900296ED0E16A0B784360491CE162BC
:100A3000618E491E61860904C0D1C1689143C160BD
:100A4000C16840220A43C26007B0F0BD019633403E
:100A50005F425F41CB07069B00D03B46002B03D192
:100A6000A36C029F3B43A364534253414F07069F2D
:100A7000049E00D51F46002F03D1A36C02271F43FD
:100A8000A764534253418F07069F00D51F46002F8E
:100A900003D1A36C04271F43A76453425341039A15
:100AA000002A069A00D51A46002A03D1A26C082310
:100AB0001343A364A26C002A00D17FE7059A11407A
:100AC0006A426A410029069900D011460029019B1B
:100AD0003CD17178222939D102990903A2688A424E
:100AE00002D12169002915D0616B4A1C62634068FC
:100AF000087016E04068314A0240606B0280801C3A
:100B000060636EE7E16A8B1CE36209882B4B0B4044
:100B100043608DE7406829490140606B0180801C7B
:100B20006063608F401E608700040FD12068C16839
:100B3000059A9143C160C1689943C1604169029BB4
:100B4000994341617270204600F0F8F820684269CC
:100B50004021A36C1B0702D40A4092090692069A10
:100B6000012A1FD1164A203AC3681340C360426964
:100B7000029B9A434261059A72704269520618D5E7
:100B800042698A434261206C002812D00D494163BA
:100B9000FFF7FCFA002800D110E7206C416B884772
:100BA00007B0F0BD2046FFF7AFFE0020A06407B0FD
:100BB000F0BD2046FFF7A8FE07B0F0BDFF01000022
:100BC000FFFEFFFF1D0E0008F0B581B000283DD0EC
:100BD0000446054644356878002804D10020287072
:100BE000204600F037F82420687001277E03206833
:100BF000C168B143C160204600F018F92021605C53
:100C0000400611D53A032068436993430096666A0B
:100C1000334343619642009E06D103225203436947
:100C20009343A26A1A434261F8022268136983431C
:100C300013615069082398435061D0683043D060F5
:100C40000020A0646970A97001B0F0BD012001B05E
:100C5000F0BD0000F0B587B00124A1031D48C268B3
:100C60000A43C260C2680A400292029901682143A5
:100C7000016001682140029102990168202211431C
:100C800001600068104002900298082001900690D0
:100C9000032705970494022603966003029005201B
:100CA000000702AD2946FFF79DFA019806900597C7
:100CB00004940396029608482946FFF793FA1B25E9
:100CC000002128462246FFF7ADFB2846FFF7A0FB90
:100CD00007B0F0BD3410024000140050F0B582B0EF
:100CE000034604464434A0780225202823D101205D
:100CF00000291ED0002A1CD020780128284618D0B0
:100D00005A87002098642225A570012500952D02A0
:100D100001951F68FE68019D2E43FE607E69009D5F
:100D20002E437E611A8759632070F96820220A4396
:100D3000FA6002B0F0BD284602B0F0BDB0B5264959
:100D4000012200F011F800280CD0C84C0221012526
:100D500020462A46FFF702FB002220462946FFF7DD
:100D6000FDFAFEE7B0BDC046B0B504464434637832
:100D70000225202B17D10123002912D0002A10D0E0
:100D80002378012B2B460CD0428600238364212537
:100D900065700286C16223700068C16880220A43C0
:100DA000C2601846B0BD2846B0BD0000B0B50A49C3
:100DB0000122FFF793FF00280CD0AC4C0221012543
:100DC00020462A46FFF7CAFA002220462946FFF7A6
:100DD000C5FAFEE7B0BDC046C8000020FEE7704778
:100DE0007047704780B5FFF7C5FA80BD07480168B6
:100DF000074A0A40074909681143012253030B437C
:100E00000360D006044908607047C04604100240E1
:100E10000000FFFF040FFF1F08ED00E080B5406AEF
:100E2000002141874186FFF76FFD80BDF0B581B09D
:100E3000044601214A03006803699343E2681A43A8
:100E400002612269C3682A4D1D40A3681343626989
:100E50001A432A43C260CD024169A943E66931437E
:100E600041610321090242698A43A1691143416139
:100E7000FFF7BEFB0146192048436168AE421AD114
:100E80004900FFF73CF9064664273946FFF737F972
:100E90000546194868438019C00032303946FFF7CB
:100EA0002EF90721014040001F22120102402801B3
:100EB0001018401817E08900FFF721F9064664274B
:100EC0003946FFF71CF905460A48684380190001B6
:100ED00032303946FFF713F90F210140F02202406A
:100EE0002801101840182168886001B0F0BDC04684
:100EF000F3E9FFFF9CFFFF0F9CFFFF1F80B55E48DB
:100F0000FFF718FD80BDC04690B0FFF73DFA022004
:100F1000039055490A6802430A6009680140099133
:100F20000127029701970320009009984F4C6946CA
:100F30002046FFF757F900250C9509950F950B955D
:100F40000E950D950A9538020C900A2009900F977E
:100F50000C260B960895079506950595444800685C
:100F600044490140F80308180E9009A8FFF778FBE0
:100F700000280BD00221012520462A46FFF7EEF972
:100F8000002220462946FFF7E9F9FEE70895079574
:100F900006950727059705A82946FFF75FFA002859
:100FA0000BD00221012520462A46FFF7D7F900225F
:100FB00020462946FFF7D2F9FEE70C950B950A95D6
:100FC000099709A82946FFF749FA00280BD0022102
:100FD000012520462A46FFF7C1F90022204629466E
:100FE000FFF7BCF9FEE7244824494B22D20126C072
:100FF000056045608660C5600C38FFF7E5FD002898
:101000000BD00221012520462A46FFF7A7F900222E
:1010100020462946FFF7A2F9FEE7012120460A46AD
:10102000FFF79CF9FFF7F6FA1549FFF768F8024653
:10103000144D15A1284600F043F82846FFF758F84C
:1010400082B20D482946FFF78FFE00280BD00221FF
:10105000012520462A46FFF781F90022204629462D
:10106000FFF77CF9FEE7FEE7341002400004005071
:10107000100FFF1FFF1F0000E0000020003801409C
:1010800040420F002C0100205075796F5075796136
:1010900020762E30202D2025754D487A0000000046
:1010A0000FB410B503A9044B044A029800F02CF8C1
:1010B00010BC08BC04B0184763120008C000002030
:1010C0000FB410B504A9074B02AA039800F01CF84E
:1010D000044602A9002000F0BFF8204610BC08BC5E
:1010E00004B018475912000802E008C8121F08C1CE
:1010F000002AFAD170477047002001E001C1121F99
:10110000002AFBD170470000FFB58DB004460025D2
:1011100006E025280AD0109A0F999047641C6D1C90
:1011200020780028F5D1284611B0F0BD0027012114
:10113000484A009700E00743641C23780846203B98
:1011400098401042F7D120782E2817D10420074369
:101150006078641C2A280CD10E98641C02C8009187
:101160000E900BE000990A22514330394018641C5C
:1011700000902078014630390929F3D920780028D9
:10118000D1D0642808D0692806D075281ED0109ABE
:101190000F9990476D1C5BE00A200E99019001C9E0
:1011A0000E91002802DA40422D2102E0390504D5D3
:1011B0002B216A461172012103E0F90704D0202196
:1011C000F7E70BAE0B910DE00021FAE70A200E992C
:1011D000019001C90E91F7E70199FEF790FF3031B8
:1011E000761E31700028F7D103A8801B20300190B3
:1011F000780701D5009801E001200090019988420C
:1012000001DD401A00E000200027009006E002A85F
:10121000109AC05D0F9990476D1C7F1C0B988742F8
:10122000F5DB04E0109A30200F9990476D1C00996F
:10123000481E00900029F5DC05E03078109A761CF5
:101240000F9990476D1C0199481E01900029F4DC0C
:10125000641C65E7092801000A68531C0B601070C4
:10126000704738B504466846047069460320ABBE33
:10127000204638BD00093D0000127A000024F40029
:101280004086510100366E010000000000000000A1
:10129000000000000000000000000000000000004E
:1012A000000000000000000001000000020000003B
:1012B000030000000400000006000000070000001A
:1012C000080000000900000000000000000000000D
:1012D000000000000000000001000000020000000B
:1012E00003000000040000000813000800000020B4
:1012F000E0000000E8100008E8130008E00000200B
:1013000078040000F8100008000000000000000051
:1013100000000000000000000000000000000000CD
:1013200000000000000000000000000000000000BD
:1013300000000000000000000000000000000000AD
:10134000000000000000000000000000000000009D
:10135000000000000000000000000000000000008D
:10136000000000000000000000000000000000007D
:10137000000000000000000000000000000000006D
:10138000000000000000000000000000000000005D
:10139000000000000000000000000000000000004D
:1013A000000000000000000000000000000000003D
:1013B000000000000000000000000000000000002D
:1013C00000000000000000000000000000127A0091
:1013D000FFFFFFFFFFFFFFFFFFFFFFFF0100000018
:0813E000040000000000000001
:04000005080000C12E
:00000001FF
