:020000040800F2
:1000000030050020D50000087B09000879090008A8
:1000100000000000000000000000000000000000E0
:100020000000000000000000000000007F09000840
:1000300000000000000000007D09000881090008A0
:10004000E7000008E7000008E7000008E7000008F4
:10005000E7000008E7000008E7000008E7000008E4
:1000600000000000E7000008E700000800000000B2
:10007000E7000008E7000008E700000800000000B3
:10008000E7000008E700000800000000E7000008A3
:1000900000000000E7000008E7000008E700000893
:1000A00000000000E700000800000000990A0008B6
:1000B000E700000800000000000000000000000051
:1000C0000348854600F034F8004800475501000811
:1000D000300500200448804704480047FEE7FEE75B
:1000E000FEE7FEE7FEE7FEE789090008C100000819
:1000F00070B50446002903D000202022012310E01F
:10010000002801D00020C043C046C0460DE025466F
:10011000D5408D4205D30D469540641B1D46954044
:1001200040191546521E002DF1DC214670BD00001D
:10013000064C0125064E05E0E36807CC2B430C3C3A
:1001400098471034B442F7D3FFF7BEFFEC0C000819
:100150000C0D000880B5002007490122D306C358C2
:100160000B50001DC028F8D150070449086000F06A
:1001700099FC002080BDC0460000002008ED00E092
:1001800070B5014620314A78022A0FD103681A68F7
:100190000E24A2431A601C68012294431C600D4C7B
:1001A00025461835AB4205D0150204E004218163D1
:1001B000012070BD1025261DB342134600D02B46EA
:1001C000236000240C704A70416B002900D08847DE
:1001D000204670BD04000240F0B589B00B68002BCA
:1001E00000D1AAE00E465649884201D0022200E022
:1001F00001220521090700278842009700D00092BC
:100200003A4608973C46039611E029434D4A51600F
:10021000059A641C33681946E1403F1D08322546A3
:10022000089CA41C08942C46002900D185E00125D7
:100230002946A1400B40ECD0029107940592069705
:10024000049372680746344610261643122E0ED1C8
:100250001C20069A10400F268640079AD3089B0060
:10026000FB181A6AB2432669864016431E62384656
:1002700003273A4608998A400368934364682646F0
:1002800001973E408E401E430660D643122C14D880
:10029000A5402E4A154210D082683240039BDB688D
:1002A000089DAB4013438360E206D20F079B9A4040
:1002B000436802998B4313434360C1683140039EF6
:1002C000B268089B9A400A43C260E100049D069F01
:1002D000059A079C9DD52346182414400F21A14060
:1002E0001A46019B9A43174B9A18136E8B43009939
:1002F000A14019431166144909687368DA0301D5EE
:10030000294300E0A943079C0F4A116051689A03F2
:1003100001D5294300E0A9430B4A51600949096806
:10032000DA0201D5294300E0A943064A1160516869
:100330009A0200D569E7A94368E709B0F0BDC04655
:100340000004005000180240801802400600060019
:10035000002A02D01822815070472822815070470D
:100360001A48006802490A68101808607047C046B9
:100370002C01002080B5032000F008F8002801D0EF
:10038000012080BD00F026F8002080BDB0B50546F4
:100390000E4801680124002916D07D20C000FFF717
:1003A000A7FE014630480068FFF7A2FE00F062F8A1
:1003B000032D09D8002807D10024E043294622460E
:1003C00000F028F8024805602046B0BDD4000020A7
:1003D000D800002082B009484168012211434160E1
:1003E0004168114001910199110702680A430260B6
:1003F000006808400090009802B070473C1002402E
:100400001F21014001208840014908607047C04613
:1004100000E100E0002805D4032203469343094A83
:100420009A1803E00C220240074BD2188007C00E36
:100430008901C9B28140FF23834010689843084373
:100440001060704700E400E014ED00E0064800682A
:1004500006490968890A1C220A40054989581F2251
:100460000A40D0407047C046C40000200810024037
:10047000CC0C0008401E010E01D001207047074936
:10048000074A5060074803680B4003218907591841
:10049000016000209060072111607047FFFFFF009E
:1004A00010E000E020ED00E080B5816C01A000F0DC
:1004B0003BFB80BD55617274204572726F722C20B7
:1004C0004572726F72436F6465203D2025640D0A8A
:1004D00000000000F0B587B0044600680168C368FA
:1004E00020221D46059215406A426A412F270F407F
:1004F000203F7E1EB7411743264645364269002FEE
:100500002ED00496012706970E07039608D00127E0
:100510003A4002973E02374620371F40D71965D12F
:1005200080221F4617407D427D410F06069F00D561
:100530002F46002F049E3BD0402213405D425D4178
:10054000490600D506950699002907D1C16891434F
:10055000C16005983070204600F0F6F907B0F0BD94
:1005600071782229FAD101210A03A368934203D1A9
:100570002269002A00D18DE0626B531C63634068DE
:100580001070608F401E60870004E7D12068C26849
:10059000059DAA43C2600A02C3689343C3604269CF
:1005A0008A4342617570204600F096F907B0F0BDAD
:1005B00031782129D2D101210903A3688B4202D1CC
:1005C000216900296ED0E16A0B784360491CE16221
:1005D000618E491E61860904C0D1C1689143C16022
:1005E000C16840220A43C26007B0F0BD01963340A3
:1005F0005F425F41CB07069B00D03B46002B03D1F7
:10060000A36C029F3B43A364534253414F07069F91
:10061000049E00D51F46002F03D1A36C02271F4361
:10062000A764534253418F07069F00D51F46002FF2
:1006300003D1A36C04271F43A76453425341039A79
:10064000002A069A00D51A46002A03D1A26C082374
:100650001343A364A26C002A00D17FE7059A1140DE
:100660006A426A410029069900D011460029019B7F
:100670003CD17178222939D102990903A2688A42B2
:1006800002D12169002915D0616B4A1C6263406860
:10069000087016E04068314A0240606B0280801C9E
:1006A00060636EE7E16A8B1CE36209882B4B0B40A9
:1006B00043608DE7406829490140606B0180801CE0
:1006C0006063608F401E608700040FD12068C1689E
:1006D000059A9143C160C1689943C1604169029B19
:1006E000994341617270204600F0F6F82068426933
:1006F0004021A36C1B0702D40A4092090692069A75
:10070000012A1FD1164A203AC3681340C3604269C8
:10071000029B9A434261059A72704269520618D54B
:1007200042698A434261206C002812D00D4941631E
:10073000FFF726FD002800D110E7206C416B8847A9
:1007400007B0F0BD2046FFF7AFFE0020A06407B061
:10075000F0BD2046FFF7A8FE07B0F0BDFF01000086
:10076000FFFEFFFFB9090008F0B581B000283DD0B9
:100770000446054644356878002804D100202870D6
:10078000204600F037F82420687001277E03206897
:10079000C168B143C160204600F016F92021605CB9
:1007A000400611D53A032068436993430096666A70
:1007B000334343619642009E06D1032252034369AC
:1007C0009343A26A1A434261F80222681369834381
:1007D00013615069082398435061D0683043D0605A
:1007E0000020A0646970A97001B0F0BD012001B0C3
:1007F000F0BD0000F0B587B00124A103C648C2686F
:100800000A43C260C2680A40029202990168214309
:100810000160016821400291029901682022114380
:100820000160006810400290029808200190069034
:10083000032705970494022603966003029005207F
:10084000000702AD2946FFF7C7FC019806900597FF
:1008500004940396029607482946FFF7BDFC1B2522
:10086000002128462246FFF7D5FD2846FFF7C8FDA0
:1008700007B0F0BD00140050F0B582B00346044646
:100880004434A0780225202823D1012000291ED03D
:10089000002A1CD020780128284618D05A8700202A
:1008A00098642225A570012500952D0201951F68E9
:1008B000FE68019D2E43FE607E69009D2E437E6191
:1008C0001A8759632070F96820220A43FA6002B03F
:1008D000F0BD284602B0F0BDB0B526490C2200F0AC
:1008E00011F800280CD08D4C012500222046294605
:1008F000FFF72EFD022120462A46FFF729FDFEE7DD
:10090000B0BDC046B0B50446443463780225202B00
:1009100017D10123002912D0002A10D02378012BEF
:100920002B460CD042860023836421256570028605
:10093000C16223700068C16880220A43C260184601
:10094000B0BD2846B0BD0000B0B50A490C22FFF783
:1009500093FF00280CD0714C012500222046294627
:10096000FFF7F6FC022120462A46FFF7F1FCFEE7DE
:10097000B0BDC046C8000020FEE770477047704712
:1009800080B5FFF7EDFC80BD07480168074A0A40C3
:10099000074909681143012253030B430360D00642
:1009A000044908607047C046041002400000FFFF81
:1009B000040FFF1F08ED00E080B5406A0021418769
:1009C0004186FFF771FD80BDF0B581B0044601217D
:1009D0004A03006803699343E2681A43026122698B
:1009E000C3682A4D1D40A368134362691A432A4312
:1009F000C260CD024169A943E669314341610321E7
:100A0000090242698A43A16911434161FFF71EFD52
:100A10000146192048436168AE421AD14900FFF7E8
:100A200067FB064664273946FFF762FB054619480F
:100A300068438019C00032303946FFF759FB07215F
:100A4000014040001F2212010240280110184018E6
:100A500017E08900FFF74CFB064664273946FFF78D
:100A600047FB05460A486843801900013230394681
:100A7000FFF73EFB0F210140F02202402801101831
:100A800040182168886001B0F0BDC046F3E9FFFF5F
:100A90009CFFFF0F9CFFFF1F80B52148FFF71AFD49
:100AA00080BDC04686B0022004901B490A680243FC
:100AB0000A60096801400091012003900290032020
:100AC00001900098154C01A92046FFF785FBFFF720
:100AD00051FC134800214B22D201124B0C2503601C
:100AE00042608160C160016145618161FFF73CFE48
:100AF00000280BD00125002220462946FFF728FCBC
:100B0000022120462A46FFF723FCFEE7012120466A
:100B10000A46FFF71DFCFEE73410024000040050B7
:100B2000E0000020003801400FB410B503A9044BC9
:100B3000044A029800F018F810BC08BC04B018472A
:100B4000B90C0008C000002002E008C8121F08C14C
:100B5000002AFAD170477047002001E001C1121F3E
:100B6000002AFBD170470000FFB58DB00446002578
:100B700006E025280AD0109A0F999047641C6D1C36
:100B800020780028F5D1284611B0F0BD00270121BA
:100B9000484A009700E00743641C23780846203B3E
:100BA00098401042F7D120782E2817D1042007430F
:100BB0006078641C2A280CD10E98641C02C800912D
:100BC0000E900BE000990A22514330394018641C02
:100BD00000902078014630390929F3D9207800287F
:100BE000D1D0642808D0692806D075281ED0109A64
:100BF0000F9990476D1C5BE00A200E99019001C986
:100C00000E91002802DA40422D2102E0390504D578
:100C10002B216A461172012103E0F90704D020213B
:100C2000F7E70BAE0B910DE00021FAE70A200E99D1
:100C3000019001C90E91F7E70199FFF759FA303198
:100C4000761E31700028F7D103A8801B2030019058
:100C5000780701D5009801E00120009001998842B1
:100C600001DD401A00E000200027009006E002A805
:100C7000109AC05D0F9990476D1C7F1C0B9887429E
:100C8000F5DB04E0109A30200F9990476D1C009915
:100C9000481E00900029F5DC05E03078109A761C9B
:100CA0000F9990476D1C0199481E01900029F4DCB2
:100CB000641C65E70928010038B5044668460470DD
:100CC00069460320ABBE204638BD0000000000008E
:100CD0000000000000000000000000000100000013
:100CE000020000000300000004000000100D0008D6
:100CF00000000020E0000000480B0008F00D000894
:100D0000E000002050040000580B00080000000024
:100D100000000000000000000000000000000000D3
:100D200000000000000000000000000000000000C3
:100D300000000000000000000000000000000000B3
:100D400000000000000000000000000000000000A3
:100D50000000000000000000000000000000000093
:100D60000000000000000000000000000000000083
:100D70000000000000000000000000000000000073
:100D80000000000000000000000000000000000063
:100D90000000000000000000000000000000000053
:100DA0000000000000000000000000000000000043
:100DB0000000000000000000000000000000000033
:100DC0000000000000000000000000000000000023
:100DD0000000000000366E01FFFFFFFFFFFFFFFF76
:100DE000FFFFFFFF01000000040000000000000002
:04000005080000C12E
:00000001FF
